20231010-11:48:18.630582000 : 8=FIX.4.4|9=75|35=A|34=1|49=MARKET_SESSION|52=20231010-11:48:18.630|56=MARKET|98=0|108=30|10=006|
20231010-11:48:18.630972000 : 8=FIX.4.4|9=75|35=A|34=1|49=MARKET|52=20231010-11:48:18.630|56=MARKET_SESSION|98=0|108=30|10=006|
20231010-11:48:48.071423000 : 8=FIX.4.4|9=63|35=0|34=2|49=MARKET|52=20231010-11:48:48.071|56=MARKET_SESSION|10=220|
20231010-11:48:48.071606000 : 8=FIX.4.4|9=63|35=0|34=2|49=MARKET_SESSION|52=20231010-11:48:48.071|56=MARKET|10=220|
20231010-11:49:06.408019000 : 8=FIX.4.4|9=247|35=D|34=3|49=MARKET_SESSION|52=20231010-11:49:06.407|56=MARKET|116=mtp-cimi|11=RPm4Qw56TJq20eM1LWVQfw**|15=HKD|22=4|38=7000|40=2|44=49.9|48=KYG875721634|54=1|55=700|59=0|60=20231010-11:49:06.404|100=XHKG|583=TVRQH+tkb03GTlG0ZM4HBIvRAw**|5000=TVOL|10=196|
20231010-11:49:06.408451000 : 8=FIX.4.4|9=237|35=8|34=3|49=MARKET|52=20231010-11:49:06.408|56=MARKET_SESSION|6=0|11=RPm4Qw56TJq20eM1LWVQfw**|14=0|17=1|22=4|30=MARS|31=0|32=0|37=rrlQQRnnSAeP09QEhZCONQ**|38=7000.000000|39=0|40=2|44=49.900000|48=KYG875721634|54=1|55=700|150=0|151=7000|10=237|
20231010-11:49:21.338534000 : 8=FIX.4.4|9=246|35=D|34=4|49=MARKET_SESSION|52=20231010-11:49:21.338|56=MARKET|116=mtp-cimi|11=HIYnIKgnQcmXqn3qDtzMRA**|15=HKD|22=4|38=700|40=2|44=50.1|48=KYG875721634|54=1|55=700|59=0|60=20231010-11:49:21.335|100=XHKG|583=TVRQH+tkb03GTlG0ZM4HBIvRAw**|5000=TVOL|10=098|
20231010-11:49:21.339353000 : 8=FIX.4.4|9=235|35=8|34=4|49=MARKET|52=20231010-11:49:21.339|56=MARKET_SESSION|6=0|11=HIYnIKgnQcmXqn3qDtzMRA**|14=0|17=2|22=4|30=MARS|31=0|32=0|37=3EJEHa5WTe+XXU8eI6kEKA**|38=700.000000|39=0|40=2|44=50.100000|48=KYG875721634|54=1|55=700|150=0|151=700|10=125|
20231010-11:49:21.339549000 : 8=FIX.4.4|9=267|35=8|34=5|49=MARKET|52=20231010-11:49:21.339|56=MARKET_SESSION|6=50.100000|11=HIYnIKgnQcmXqn3qDtzMRA**|14=700.000000|17=3|22=4|30=MARS|31=50.100000|32=700.000000|37=3EJEHa5WTe+XXU8eI6kEKA**|38=700.000000|39=2|40=2|44=50.100000|48=KYG875721634|54=1|55=700|150=F|151=0|10=167|
20231010-11:49:44.897851000 : 8=FIX.4.4|9=265|35=G|34=5|49=MARKET_SESSION|52=20231010-11:49:44.897|56=MARKET|116=mtp-cimi|11=V0LP5+UBQH+6YKfhp6hepA**|15=HKD|22=4|38=4000|40=2|41=RPm4Qw56TJq20eM1LWVQfw**|44=49.9|48=KYG875721634|54=1|55=700|59=0|60=20231010-11:49:44.894|100=XHKG|583=TVRQH+tkb03GTlG0ZM4HBIvRAw**|10=060|
20231010-11:49:44.898230000 : 8=FIX.4.4|9=247|35=D|34=6|49=MARKET_SESSION|52=20231010-11:49:44.898|56=MARKET|116=mtp-cimi|11=lkTon0O5SSeihEkjtYd4hg**|15=HKD|22=4|38=2300|40=2|44=50.1|48=KYG875721634|54=1|55=700|59=0|60=20231010-11:49:44.894|100=XHKG|583=TVRQH+tkb03GTlG0ZM4HBIvRAw**|5000=TVOL|10=201|
20231010-11:49:44.898534000 : 8=FIX.4.4|9=261|35=8|34=6|49=MARKET|52=20231010-11:49:44.898|56=MARKET_SESSION|6=0.000000|11=V0LP5+UBQH+6YKfhp6hepA**|14=0.000000|17=4|22=4|37=rrlQQRnnSAeP09QEhZCONQ**|38=4000.000000|39=0|40=2|41=RPm4Qw56TJq20eM1LWVQfw**|44=49.900000|48=KYG875721634|54=1|55=700|150=5|151=4000|10=193|
20231010-11:49:44.899065000 : 8=FIX.4.4|9=237|35=8|34=7|49=MARKET|52=20231010-11:49:44.898|56=MARKET_SESSION|6=0|11=lkTon0O5SSeihEkjtYd4hg**|14=0|17=5|22=4|30=MARS|31=0|32=0|37=UT4a8hyTSa+gcUywHTpdUg**|38=2300.000000|39=0|40=2|44=50.100000|48=KYG875721634|54=1|55=700|150=0|151=2300|10=079|
20231010-11:49:44.903704000 : 8=FIX.4.4|9=247|35=D|34=7|49=MARKET_SESSION|52=20231010-11:49:44.903|56=MARKET|116=mtp-cimi|11=Gh/V/+jlRva8cCI9btUXjw**|15=HKD|22=4|38=3000|40=2|44=50.1|48=KYG875721634|54=1|55=700|59=0|60=20231010-11:49:44.900|100=XHKG|583=TVRQH+tkb03GTlG0ZM4HBIvRAw**|5000=TVOL|10=026|
20231010-11:49:44.903796000 : 8=FIX.4.4|9=270|35=8|34=8|49=MARKET|52=20231010-11:49:44.899|56=MARKET_SESSION|6=50.100000|11=lkTon0O5SSeihEkjtYd4hg**|14=2300.000000|17=6|22=4|30=MARS|31=50.100000|32=2300.000000|37=UT4a8hyTSa+gcUywHTpdUg**|38=2300.000000|39=2|40=2|44=50.100000|48=KYG875721634|54=1|55=700|150=F|151=0|10=160|
20231010-11:49:44.946628000 : 8=FIX.4.4|9=237|35=8|34=9|49=MARKET|52=20231010-11:49:44.904|56=MARKET_SESSION|6=0|11=Gh/V/+jlRva8cCI9btUXjw**|14=0|17=7|22=4|30=MARS|31=0|32=0|37=HpQCalsuQcO69V/rSlln0Q**|38=3000.000000|39=0|40=2|44=50.100000|48=KYG875721634|54=1|55=700|150=0|151=3000|10=109|
20231010-11:49:44.946759000 : 8=FIX.4.4|9=271|35=8|34=10|49=MARKET|52=20231010-11:49:44.904|56=MARKET_SESSION|6=50.100000|11=Gh/V/+jlRva8cCI9btUXjw**|14=3000.000000|17=8|22=4|30=MARS|31=50.100000|32=3000.000000|37=HpQCalsuQcO69V/rSlln0Q**|38=3000.000000|39=2|40=2|44=50.100000|48=KYG875721634|54=1|55=700|150=F|151=0|10=227|
20231010-11:49:45.404426000 : 8=FIX.4.4|9=265|35=G|34=8|49=MARKET_SESSION|52=20231010-11:49:45.404|56=MARKET|116=mtp-cimi|11=NwjAg0vaRmGVVP4aS4hPcg**|15=HKD|22=4|38=1000|40=2|41=V0LP5+UBQH+6YKfhp6hepA**|44=49.9|48=KYG875721634|54=1|55=700|59=0|60=20231010-11:49:45.402|100=XHKG|583=TVRQH+tkb03GTlG0ZM4HBIvRAw**|10=172|
20231010-11:49:45.405025000 : 8=FIX.4.4|9=262|35=8|34=11|49=MARKET|52=20231010-11:49:45.404|56=MARKET_SESSION|6=0.000000|11=NwjAg0vaRmGVVP4aS4hPcg**|14=0.000000|17=9|22=4|37=rrlQQRnnSAeP09QEhZCONQ**|38=1000.000000|39=0|40=2|41=V0LP5+UBQH+6YKfhp6hepA**|44=49.900000|48=KYG875721634|54=1|55=700|150=5|151=1000|10=106|
20231010-11:49:45.409849000 : 8=FIX.4.4|9=247|35=D|34=9|49=MARKET_SESSION|52=20231010-11:49:45.409|56=MARKET|116=mtp-cimi|11=UVn0M7E8TbCW2dqF00qIjA**|15=HKD|22=4|38=3000|40=2|44=50.1|48=KYG875721634|54=1|55=700|59=0|60=20231010-11:49:45.407|100=XHKG|583=TVRQH+tkb03GTlG0ZM4HBIvRAw**|5000=TVOL|10=124|
20231010-11:49:45.410620000 : 8=FIX.4.4|9=239|35=8|34=12|49=MARKET|52=20231010-11:49:45.410|56=MARKET_SESSION|6=0|11=UVn0M7E8TbCW2dqF00qIjA**|14=0|17=10|22=4|30=MARS|31=0|32=0|37=RpnY/ICFSluYq6VrwwrxkA**|38=3000.000000|39=0|40=2|44=50.100000|48=KYG875721634|54=1|55=700|150=0|151=3000|10=157|
20231010-11:49:45.910268000 : 8=FIX.4.4|9=219|35=F|34=10|49=MARKET_SESSION|52=20231010-11:49:45.910|56=MARKET|11=ANBgZJbOT3iz74iANB7IPA**|22=4|38=1000|41=NwjAg0vaRmGVVP4aS4hPcg**|48=KYG875721634|54=1|55=700|60=20231010-11:49:45.908|583=TVRQH+tkb03GTlG0ZM4HBIvRAw**|10=072|
20231010-11:49:45.914744000 : 8=FIX.4.4|9=248|35=D|34=11|49=MARKET_SESSION|52=20231010-11:49:45.914|56=MARKET|116=mtp-cimi|11=zlZmEh+9QuOzrB8/FKaUAA**|15=HKD|22=4|38=1000|40=2|44=50.1|48=KYG875721634|54=1|55=700|59=0|60=20231010-11:49:45.912|100=XHKG|583=TVRQH+tkb03GTlG0ZM4HBIvRAw**|5000=TVOL|10=043|
20231010-11:49:45.915320000 : 8=FIX.4.4|9=239|35=8|34=15|49=MARKET|52=20231010-11:49:45.915|56=MARKET_SESSION|6=0|11=zlZmEh+9QuOzrB8/FKaUAA**|14=0|17=13|22=4|30=MARS|31=0|32=0|37=n666Jm6HR9GaUjiXG08P2w**|38=1000.000000|39=0|40=2|44=50.100000|48=KYG875721634|54=1|55=700|150=0|151=1000|10=196|
20231010-11:49:45.958619000 : 8=FIX.4.4|9=272|35=8|34=16|49=MARKET|52=20231010-11:49:45.915|56=MARKET_SESSION|6=50.100000|11=zlZmEh+9QuOzrB8/FKaUAA**|14=100.000000|17=14|22=4|30=MARS|31=50.100000|32=100.000000|37=n666Jm6HR9GaUjiXG08P2w**|38=1000.000000|39=1|40=2|44=50.100000|48=KYG875721634|54=1|55=700|150=F|151=900|10=016|
20231010-11:50:05.103272000 : 8=FIX.4.4|9=249|35=D|34=12|49=MARKET_SESSION|52=20231010-11:50:05.103|56=MARKET|116=mtp-cimi|11=vfwbbS3HSwWMPRWsYOp+OA**|15=HKD|22=4|38=10000|40=2|44=49.9|48=KYG875721634|54=1|55=700|59=0|60=20231010-11:50:05.101|100=XHKG|583=TVRQLgocDDS1Q0uSUjMqNkCYgQ**|5000=TVOL|10=067|
20231010-11:50:05.103718000 : 8=FIX.4.4|9=241|35=8|34=17|49=MARKET|52=20231010-11:50:05.103|56=MARKET_SESSION|6=0|11=vfwbbS3HSwWMPRWsYOp+OA**|14=0|17=15|22=4|30=MARS|31=0|32=0|37=PREvv3OaRoWe57u0a/k1nQ**|38=10000.000000|39=0|40=2|44=49.900000|48=KYG875721634|54=1|55=700|150=0|151=10000|10=010|
20231010-11:50:05.103858000 : 8=FIX.4.4|9=249|35=D|34=13|49=MARKET_SESSION|52=20231010-11:50:05.103|56=MARKET|116=mtp-cimi|11=momXo+klQVqkTU0h1L0bIw**|15=HKD|22=4|38=30000|40=2|44=49.8|48=KYG875721634|54=1|55=700|59=0|60=20231010-11:50:05.101|100=XHKG|583=TVRQLgocDDS1Q0uSUjMqNkCYgQ**|5000=TVOL|10=088|
20231010-11:50:05.104221000 : 8=FIX.4.4|9=241|35=8|34=18|49=MARKET|52=20231010-11:50:05.104|56=MARKET_SESSION|6=0|11=momXo+klQVqkTU0h1L0bIw**|14=0|17=16|22=4|30=MARS|31=0|32=0|37=nWqfr1xJRQSuopPLxVOoUA**|38=30000.000000|39=0|40=2|44=49.800000|48=KYG875721634|54=1|55=700|150=0|151=30000|10=253|
20231010-11:50:35.057295000 : 8=FIX.4.4|9=64|35=0|34=19|49=MARKET|52=20231010-11:50:35.057|56=MARKET_SESSION|10=014|
20231010-11:50:35.057415000 : 8=FIX.4.4|9=64|35=0|34=14|49=MARKET_SESSION|52=20231010-11:50:35.057|56=MARKET|10=009|
20231010-11:50:40.179457000 : 8=FIX.4.4|9=265|35=D|34=15|49=MARKET_SESSION|52=20231010-11:50:40.179|56=MARKET|116=mtp-cimi|11=PDPluKw9R0W8yHuvlPskaw**|15=IDR|22=4|38=100|40=2|44=63|48=IDN000436805|54=1|55=XSMU|59=0|60=20231010-11:50:40.173|100=XIDX|528=A|583=TVRQFRdYh447T02P1kzbCkjK4g**|5000=MARKET_MAKING_IDX|10=253|
20231010-11:50:40.179903000 : 8=FIX.4.4|9=265|35=D|34=16|49=MARKET_SESSION|52=20231010-11:50:40.179|56=MARKET|116=mtp-cimi|11=euHDr2LLRqOnLjc+KS6SBQ**|15=IDR|22=4|38=100|40=2|44=62|48=IDN000436805|54=1|55=XSMU|59=0|60=20231010-11:50:40.173|100=XIDX|528=A|583=TVRQFRdYh447T02P1kzbCkjK4g**|5000=MARKET_MAKING_IDX|10=046|
20231010-11:50:40.179912000 : 8=FIX.4.4|9=238|35=8|34=20|49=MARKET|52=20231010-11:50:40.179|56=MARKET_SESSION|6=0|11=PDPluKw9R0W8yHuvlPskaw**|14=0|17=17|22=4|30=MARS|31=0|32=0|37=T2AyTfySTV2FUBSdo1f6yw**|38=100.000000|39=0|40=2|44=63.000000|48=IDN000436805|54=1|55=XSMU|150=0|151=100|10=112|
20231010-11:50:40.180231000 : 8=FIX.4.4|9=238|35=8|34=21|49=MARKET|52=20231010-11:50:40.180|56=MARKET_SESSION|6=0|11=euHDr2LLRqOnLjc+KS6SBQ**|14=0|17=18|22=4|30=MARS|31=0|32=0|37=kkw5VZevQh6YK8L4d2QeEw**|38=100.000000|39=0|40=2|44=62.000000|48=IDN000436805|54=1|55=XSMU|150=0|151=100|10=152|
20231010-11:50:40.180959000 : 8=FIX.4.4|9=265|35=D|34=17|49=MARKET_SESSION|52=20231010-11:50:40.180|56=MARKET|116=mtp-cimi|11=7Yfj2McOTQCVFnx24NsvOw**|15=IDR|22=4|38=100|40=2|44=61|48=IDN000436805|54=1|55=XSMU|59=0|60=20231010-11:50:40.173|100=XIDX|528=A|583=TVRQFRdYh447T02P1kzbCkjK4g**|5000=MARKET_MAKING_IDX|10=100|
20231010-11:50:40.181030000 : 8=FIX.4.4|9=265|35=D|34=18|49=MARKET_SESSION|52=20231010-11:50:40.181|56=MARKET|116=mtp-cimi|11=nFLgXjgQTpKwkkfaPhHyqQ**|15=IDR|22=4|38=400|40=2|44=66|48=IDN000436805|54=2|55=XSMU|59=0|60=20231010-11:50:40.173|100=XIDX|528=A|583=TVRQFRdYh447T02P1kzbCkjK4g**|5000=MARKET_MAKING_IDX|10=080|
20231010-11:50:40.181280000 : 8=FIX.4.4|9=238|35=8|34=22|49=MARKET|52=20231010-11:50:40.181|56=MARKET_SESSION|6=0|11=7Yfj2McOTQCVFnx24NsvOw**|14=0|17=19|22=4|30=MARS|31=0|32=0|37=+6v7AV1HSPWpOpzyS7QKDw**|38=100.000000|39=0|40=2|44=61.000000|48=IDN000436805|54=1|55=XSMU|150=0|151=100|10=147|
20231010-11:50:40.181607000 : 8=FIX.4.4|9=238|35=8|34=23|49=MARKET|52=20231010-11:50:40.181|56=MARKET_SESSION|6=0|11=nFLgXjgQTpKwkkfaPhHyqQ**|14=0|17=20|22=4|30=MARS|31=0|32=0|37=yeE6HNOHQrqj7thLWlAg5g**|38=400.000000|39=0|40=2|44=66.000000|48=IDN000436805|54=2|55=XSMU|150=0|151=400|10=232|
20231010-11:50:40.181668000 : 8=FIX.4.4|9=265|35=D|34=19|49=MARKET_SESSION|52=20231010-11:50:40.181|56=MARKET|116=mtp-cimi|11=a1/RIKYGTkqLBgpUTstJ8A**|15=IDR|22=4|38=400|40=2|44=67|48=IDN000436805|54=2|55=XSMU|59=0|60=20231010-11:50:40.173|100=XIDX|528=A|583=TVRQFRdYh447T02P1kzbCkjK4g**|5000=MARKET_MAKING_IDX|10=066|
20231010-11:50:40.182043000 : 8=FIX.4.4|9=265|35=D|34=20|49=MARKET_SESSION|52=20231010-11:50:40.182|56=MARKET|116=mtp-cimi|11=XeqJXyo1Smqxihg0nREx0A**|15=IDR|22=4|38=400|40=2|44=68|48=IDN000436805|54=2|55=XSMU|59=0|60=20231010-11:50:40.173|100=XIDX|528=A|583=TVRQFRdYh447T02P1kzbCkjK4g**|5000=MARKET_MAKING_IDX|10=245|
20231010-11:50:40.182076000 : 8=FIX.4.4|9=238|35=8|34=24|49=MARKET|52=20231010-11:50:40.181|56=MARKET_SESSION|6=0|11=a1/RIKYGTkqLBgpUTstJ8A**|14=0|17=21|22=4|30=MARS|31=0|32=0|37=B6w+MFQrQdya75boqEzCYA**|38=400.000000|39=0|40=2|44=67.000000|48=IDN000436805|54=2|55=XSMU|150=0|151=400|10=154|
20231010-11:50:40.182393000 : 8=FIX.4.4|9=238|35=8|34=25|49=MARKET|52=20231010-11:50:40.182|56=MARKET_SESSION|6=0|11=XeqJXyo1Smqxihg0nREx0A**|14=0|17=22|22=4|30=MARS|31=0|32=0|37=76L15la4QpGdB62su73E/A**|38=400.000000|39=0|40=2|44=68.000000|48=IDN000436805|54=2|55=XSMU|150=0|151=400|10=075|
20231010-11:50:40.182593000 : 8=FIX.4.4|9=265|35=D|34=21|49=MARKET_SESSION|52=20231010-11:50:40.182|56=MARKET|116=mtp-cimi|11=m5e32Vo/TMaH0SPt3nsmVw**|15=IDR|22=4|38=400|40=2|44=69|48=IDN000436805|54=2|55=XSMU|59=0|60=20231010-11:50:40.173|100=XIDX|528=A|583=TVRQFRdYh447T02P1kzbCkjK4g**|5000=MARKET_MAKING_IDX|10=078|
20231010-11:50:40.182906000 : 8=FIX.4.4|9=238|35=8|34=26|49=MARKET|52=20231010-11:50:40.182|56=MARKET_SESSION|6=0|11=m5e32Vo/TMaH0SPt3nsmVw**|14=0|17=23|22=4|30=MARS|31=0|32=0|37=BQywhGzcToWHoo+oWZioOA**|38=400.000000|39=0|40=2|44=69.000000|48=IDN000436805|54=2|55=XSMU|150=0|151=400|10=106|
20231010-11:50:40.183378000 : 8=FIX.4.4|9=265|35=D|34=22|49=MARKET_SESSION|52=20231010-11:50:40.183|56=MARKET|116=mtp-cimi|11=B58cwmrzSfWtaf5rm7Q3eg**|15=IDR|22=4|38=400|40=2|44=70|48=IDN000436805|54=2|55=XSMU|59=0|60=20231010-11:50:40.173|100=XIDX|528=A|583=TVRQFRdYh447T02P1kzbCkjK4g**|5000=MARKET_MAKING_IDX|10=209|
20231010-11:50:40.183718000 : 8=FIX.4.4|9=238|35=8|34=27|49=MARKET|52=20231010-11:50:40.183|56=MARKET_SESSION|6=0|11=B58cwmrzSfWtaf5rm7Q3eg**|14=0|17=24|22=4|30=MARS|31=0|32=0|37=qtIWw7eIS0ODxm+tsvAUjg**|38=400.000000|39=0|40=2|44=70.000000|48=IDN000436805|54=2|55=XSMU|150=0|151=400|10=183|
20231010-11:50:40.226661000 : 8=FIX.4.4|9=232|35=8|34=28|49=MARKET|52=20231010-11:50:40.183|56=MARKET_SESSION|6=0.000000|11=B58cwmrzSfWtaf5rm7Q3eg**|14=0.000000|17=25|22=4|37=qtIWw7eIS0ODxm+tsvAUjg**|38=400.000000|39=4|40=2|44=70.000000|48=IDN000436805|54=2|55=XSMU|150=4|151=0|10=122|
20231010-11:50:57.360330000 : 8=FIX.4.4|9=265|35=D|34=23|49=MARKET_SESSION|52=20231010-11:50:57.360|56=MARKET|116=mtp-cimi|11=R3e3NatcSEuFeCcU0a0Zdw**|15=IDR|22=4|38=300|40=2|44=61|48=IDN000436805|54=1|55=XSMU|59=0|60=20231010-11:50:57.351|100=XIDX|528=A|583=TVRQFRdYh447T02P1kzbCkjK4g**|5000=MARKET_MAKING_IDX|10=095|
20231010-11:50:57.360899000 : 8=FIX.4.4|9=265|35=D|34=24|49=MARKET_SESSION|52=20231010-11:50:57.360|56=MARKET|116=mtp-cimi|11=IT5HFc9IQi6ZG7nX/mvBjQ**|15=IDR|22=4|38=300|40=2|44=62|48=IDN000436805|54=1|55=XSMU|59=0|60=20231010-11:50:57.351|100=XIDX|528=A|583=TVRQFRdYh447T02P1kzbCkjK4g**|5000=MARKET_MAKING_IDX|10=247|
20231010-11:50:57.361142000 : 8=FIX.4.4|9=238|35=8|34=29|49=MARKET|52=20231010-11:50:57.361|56=MARKET_SESSION|6=0|11=R3e3NatcSEuFeCcU0a0Zdw**|14=0|17=26|22=4|30=MARS|31=0|32=0|37=ttLKJ6lZSTiP/dcEhEq24Q**|38=300.000000|39=0|40=2|44=61.000000|48=IDN000436805|54=1|55=XSMU|150=0|151=300|10=172|
20231010-11:50:57.361668000 : 8=FIX.4.4|9=238|35=8|34=30|49=MARKET|52=20231010-11:50:57.361|56=MARKET_SESSION|6=0|11=IT5HFc9IQi6ZG7nX/mvBjQ**|14=0|17=27|22=4|30=MARS|31=0|32=0|37=VJnQ+vnkThe9mD1KHIeuAw**|38=300.000000|39=0|40=2|44=62.000000|48=IDN000436805|54=1|55=XSMU|150=0|151=300|10=138|
20231010-11:50:57.362290000 : 8=FIX.4.4|9=265|35=D|34=25|49=MARKET_SESSION|52=20231010-11:50:57.362|56=MARKET|116=mtp-cimi|11=kfYFQIl1Rii9+j2eMEZECw**|15=IDR|22=4|38=300|40=2|44=63|48=IDN000436805|54=1|55=XSMU|59=0|60=20231010-11:50:57.351|100=XIDX|528=A|583=TVRQFRdYh447T02P1kzbCkjK4g**|5000=MARKET_MAKING_IDX|10=052|
20231010-11:50:57.362941000 : 8=FIX.4.4|9=238|35=8|34=31|49=MARKET|52=20231010-11:50:57.362|56=MARKET_SESSION|6=0|11=kfYFQIl1Rii9+j2eMEZECw**|14=0|17=28|22=4|30=MARS|31=0|32=0|37=lfA81tFISW+MUIDbOt0AZQ**|38=300.000000|39=0|40=2|44=63.000000|48=IDN000436805|54=1|55=XSMU|150=0|151=300|10=008|
20231010-11:50:57.364285000 : 8=FIX.4.4|9=265|35=D|34=26|49=MARKET_SESSION|52=20231010-11:50:57.364|56=MARKET|116=mtp-cimi|11=akbZZLjGRluh+4VaV20Jsg**|15=IDR|22=4|38=400|40=2|44=70|48=IDN000436805|54=2|55=XSMU|59=0|60=20231010-11:50:57.351|100=XIDX|528=A|583=TVRQFRdYh447T02P1kzbCkjK4g**|5000=MARKET_MAKING_IDX|10=136|
20231010-11:50:57.364703000 : 8=FIX.4.4|9=238|35=8|34=32|49=MARKET|52=20231010-11:50:57.364|56=MARKET_SESSION|6=0|11=akbZZLjGRluh+4VaV20Jsg**|14=0|17=29|22=4|30=MARS|31=0|32=0|37=oECzoCu5Q16yPiOzD7zvZQ**|38=400.000000|39=0|40=2|44=70.000000|48=IDN000436805|54=2|55=XSMU|150=0|151=400|10=048|
20231010-11:50:57.406646000 : 8=FIX.4.4|9=232|35=8|34=33|49=MARKET|52=20231010-11:50:57.364|56=MARKET_SESSION|6=0.000000|11=akbZZLjGRluh+4VaV20Jsg**|14=0.000000|17=30|22=4|37=oECzoCu5Q16yPiOzD7zvZQ**|38=400.000000|39=4|40=2|44=70.000000|48=IDN000436805|54=2|55=XSMU|150=4|151=0|10=234|
20231010-11:51:07.960991000 : 8=FIX.4.4|9=219|35=F|34=27|49=MARKET_SESSION|52=20231010-11:51:07.960|56=MARKET|11=oapDQhVcTD66DwBMFJd7WQ**|22=4|38=100|41=7Yfj2McOTQCVFnx24NsvOw**|48=IDN000436805|54=1|55=XSMU|60=20231010-11:51:07.959|583=TVRQFRdYh447T02P1kzbCkjK4g**|10=013|
20231010-11:51:07.961210000 : 8=FIX.4.4|9=219|35=F|34=28|49=MARKET_SESSION|52=20231010-11:51:07.961|56=MARKET|11=BqgCFk6bRIqA8Eu6TWOdVQ**|22=4|38=300|41=R3e3NatcSEuFeCcU0a0Zdw**|48=IDN000436805|54=1|55=XSMU|60=20231010-11:51:07.959|583=TVRQFRdYh447T02P1kzbCkjK4g**|10=008|
20231010-11:51:07.961337000 : 8=FIX.4.4|9=260|35=8|34=34|49=MARKET|52=20231010-11:51:07.961|56=MARKET_SESSION|6=0.000000|11=oapDQhVcTD66DwBMFJd7WQ**|14=0.000000|17=31|22=4|37=+6v7AV1HSPWpOpzyS7QKDw**|38=100.000000|39=4|40=2|41=7Yfj2McOTQCVFnx24NsvOw**|44=61.000000|48=IDN000436805|54=1|55=XSMU|150=4|151=0|10=109|
20231010-11:51:07.961478000 : 8=FIX.4.4|9=219|35=F|34=29|49=MARKET_SESSION|52=20231010-11:51:07.961|56=MARKET|11=BiWHwxzNTu66Hcf8KwJtFw**|22=4|38=100|41=euHDr2LLRqOnLjc+KS6SBQ**|48=IDN000436805|54=1|55=XSMU|60=20231010-11:51:07.959|583=TVRQFRdYh447T02P1kzbCkjK4g**|10=119|
20231010-11:51:07.961578000 : 8=FIX.4.4|9=260|35=8|34=35|49=MARKET|52=20231010-11:51:07.961|56=MARKET_SESSION|6=0.000000|11=BqgCFk6bRIqA8Eu6TWOdVQ**|14=0.000000|17=32|22=4|37=ttLKJ6lZSTiP/dcEhEq24Q**|38=300.000000|39=4|40=2|41=R3e3NatcSEuFeCcU0a0Zdw**|44=61.000000|48=IDN000436805|54=1|55=XSMU|150=4|151=0|10=130|
20231010-11:51:07.961947000 : 8=FIX.4.4|9=260|35=8|34=36|49=MARKET|52=20231010-11:51:07.961|56=MARKET_SESSION|6=0.000000|11=BiWHwxzNTu66Hcf8KwJtFw**|14=0.000000|17=33|22=4|37=kkw5VZevQh6YK8L4d2QeEw**|38=100.000000|39=4|40=2|41=euHDr2LLRqOnLjc+KS6SBQ**|44=62.000000|48=IDN000436805|54=1|55=XSMU|150=4|151=0|10=030|
20231010-11:51:07.962629000 : 8=FIX.4.4|9=219|35=F|34=30|49=MARKET_SESSION|52=20231010-11:51:07.962|56=MARKET|11=hRR8c4OERwuGqZL2zLv/Lg**|22=4|38=300|41=IT5HFc9IQi6ZG7nX/mvBjQ**|48=IDN000436805|54=1|55=XSMU|60=20231010-11:51:07.959|583=TVRQFRdYh447T02P1kzbCkjK4g**|10=211|
20231010-11:51:07.962931000 : 8=FIX.4.4|9=260|35=8|34=37|49=MARKET|52=20231010-11:51:07.962|56=MARKET_SESSION|6=0.000000|11=hRR8c4OERwuGqZL2zLv/Lg**|14=0.000000|17=34|22=4|37=VJnQ+vnkThe9mD1KHIeuAw**|38=300.000000|39=4|40=2|41=IT5HFc9IQi6ZG7nX/mvBjQ**|44=62.000000|48=IDN000436805|54=1|55=XSMU|150=4|151=0|10=167|
20231010-11:51:07.963405000 : 8=FIX.4.4|9=264|35=G|34=31|49=MARKET_SESSION|52=20231010-11:51:07.963|56=MARKET|116=mtp-cimi|11=Uuw/OWWVS8yUZltyWVM43w**|15=IDR|22=4|38=200|40=2|41=kfYFQIl1Rii9+j2eMEZECw**|44=63|48=IDN000436805|54=1|55=XSMU|59=0|60=20231010-11:51:07.959|100=XIDX|583=TVRQFRdYh447T02P1kzbCkjK4g**|10=158|
20231010-11:51:07.963798000 : 8=FIX.4.4|9=262|35=8|34=38|49=MARKET|52=20231010-11:51:07.963|56=MARKET_SESSION|6=0.000000|11=Uuw/OWWVS8yUZltyWVM43w**|14=0.000000|17=35|22=4|37=lfA81tFISW+MUIDbOt0AZQ**|38=200.000000|39=0|40=2|41=kfYFQIl1Rii9+j2eMEZECw**|44=63.000000|48=IDN000436805|54=1|55=XSMU|150=5|151=200|10=209|
20231010-11:51:07.966246000 : 8=FIX.4.4|9=265|35=D|34=32|49=MARKET_SESSION|52=20231010-11:51:07.966|56=MARKET|116=mtp-cimi|11=5amiX9jbRUWXTB5ppnL6eA**|15=IDR|22=4|38=400|40=2|44=70|48=IDN000436805|54=2|55=XSMU|59=0|60=20231010-11:51:07.964|100=XIDX|528=A|583=TVRQFRdYh447T02P1kzbCkjK4g**|5000=MARKET_MAKING_IDX|10=131|
20231010-11:51:07.966728000 : 8=FIX.4.4|9=238|35=8|34=39|49=MARKET|52=20231010-11:51:07.966|56=MARKET_SESSION|6=0|11=5amiX9jbRUWXTB5ppnL6eA**|14=0|17=36|22=4|30=MARS|31=0|32=0|37=q5NdE+tNTqSMP8NAD1V8yA**|38=400.000000|39=0|40=2|44=70.000000|48=IDN000436805|54=2|55=XSMU|150=0|151=400|10=090|
20231010-11:51:08.010691000 : 8=FIX.4.4|9=232|35=8|34=40|49=MARKET|52=20231010-11:51:07.966|56=MARKET_SESSION|6=0.000000|11=5amiX9jbRUWXTB5ppnL6eA**|14=0.000000|17=37|22=4|37=q5NdE+tNTqSMP8NAD1V8yA**|38=400.000000|39=4|40=2|44=70.000000|48=IDN000436805|54=2|55=XSMU|150=4|151=0|10=020|
20231010-11:51:17.691577000 : 8=FIX.4.4|9=270|35=8|34=41|49=MARKET|52=20231010-11:51:17.691|56=MARKET_SESSION|6=63.000000|11=PDPluKw9R0W8yHuvlPskaw**|14=100.000000|17=38|22=4|30=MARS|31=63.000000|32=100.000000|37=T2AyTfySTV2FUBSdo1f6yw**|38=100.000000|39=2|40=2|44=63.000000|48=IDN000436805|54=1|55=XSMU|150=F|151=0|10=153|
20231010-11:51:25.346685000 : 8=FIX.4.4|9=272|35=8|34=42|49=MARKET|52=20231010-11:51:25.346|56=MARKET_SESSION|6=63.000000|11=Uuw/OWWVS8yUZltyWVM43w**|14=100.000000|17=39|22=4|30=MARS|31=63.000000|32=100.000000|37=lfA81tFISW+MUIDbOt0AZQ**|38=200.000000|39=1|40=2|44=63.000000|48=IDN000436805|54=1|55=XSMU|150=F|151=100|10=020|
20231010-11:51:27.696134000 : 8=FIX.4.4|9=265|35=D|34=33|49=MARKET_SESSION|52=20231010-11:51:27.696|56=MARKET|116=mtp-cimi|11=opK/lyopSSC7xFwSbpQnbA**|15=IDR|22=4|38=200|40=2|44=63|48=IDN000436805|54=1|55=XSMU|59=0|60=20231010-11:51:27.693|100=XIDX|528=A|583=TVRQFRdYh447T02P1kzbCkjK4g**|5000=MARKET_MAKING_IDX|10=031|
20231010-11:51:27.696607000 : 8=FIX.4.4|9=265|35=D|34=34|49=MARKET_SESSION|52=20231010-11:51:27.696|56=MARKET|116=mtp-cimi|11=iF8wuXPpSWSwRNf+CY5GFg**|15=IDR|22=4|38=400|40=2|44=70|48=IDN000436805|54=2|55=XSMU|59=0|60=20231010-11:51:27.693|100=XIDX|528=A|583=TVRQFRdYh447T02P1kzbCkjK4g**|5000=MARKET_MAKING_IDX|10=125|
20231010-11:51:27.696855000 : 8=FIX.4.4|9=238|35=8|34=43|49=MARKET|52=20231010-11:51:27.696|56=MARKET_SESSION|6=0|11=opK/lyopSSC7xFwSbpQnbA**|14=0|17=40|22=4|30=MARS|31=0|32=0|37=3+qa8YiETnC7Rhp48hd4WA**|38=200.000000|39=0|40=2|44=63.000000|48=IDN000436805|54=1|55=XSMU|150=0|151=200|10=254|
20231010-11:51:27.697374000 : 8=FIX.4.4|9=238|35=8|34=44|49=MARKET|52=20231010-11:51:27.697|56=MARKET_SESSION|6=0|11=iF8wuXPpSWSwRNf+CY5GFg**|14=0|17=41|22=4|30=MARS|31=0|32=0|37=oFIIWNpPSv2gDgLdI/ydgg**|38=400.000000|39=0|40=2|44=70.000000|48=IDN000436805|54=2|55=XSMU|150=0|151=400|10=019|
20231010-11:51:28.536605000 : 8=FIX.4.4|9=270|35=8|34=45|49=MARKET|52=20231010-11:51:28.536|56=MARKET_SESSION|6=63.000000|11=Uuw/OWWVS8yUZltyWVM43w**|14=200.000000|17=42|22=4|30=MARS|31=63.000000|32=100.000000|37=lfA81tFISW+MUIDbOt0AZQ**|38=200.000000|39=2|40=2|44=63.000000|48=IDN000436805|54=1|55=XSMU|150=F|151=0|10=180|
20231010-11:51:38.541074000 : 8=FIX.4.4|9=265|35=D|34=35|49=MARKET_SESSION|52=20231010-11:51:38.541|56=MARKET|116=mtp-cimi|11=1vqPFRdRTpKY5bwDHjyrCQ**|15=IDR|22=4|38=100|40=2|44=63|48=IDN000436805|54=1|55=XSMU|59=0|60=20231010-11:51:38.538|100=XIDX|528=A|583=TVRQFRdYh447T02P1kzbCkjK4g**|5000=MARKET_MAKING_IDX|10=191|
20231010-11:51:38.541687000 : 8=FIX.4.4|9=238|35=8|34=46|49=MARKET|52=20231010-11:51:38.541|56=MARKET_SESSION|6=0|11=1vqPFRdRTpKY5bwDHjyrCQ**|14=0|17=43|22=4|30=MARS|31=0|32=0|37=GzWOndARQ6eBp280nIXxaA**|38=100.000000|39=0|40=2|44=63.000000|48=IDN000436805|54=1|55=XSMU|150=0|151=100|10=245|
20231010-11:51:45.685247000 : 8=FIX.4.4|9=266|35=G|34=36|49=MARKET_SESSION|52=20231010-11:51:45.685|56=MARKET|116=mtp-cimi|11=mwQGPUSETlCkmrY11GT5PQ**|15=HKD|22=4|38=3300|40=2|41=vfwbbS3HSwWMPRWsYOp+OA**|44=49.9|48=KYG875721634|54=1|55=700|59=0|60=20231010-11:51:45.682|100=XHKG|583=TVRQLgocDDS1Q0uSUjMqNkCYgQ**|10=040|
20231010-11:51:45.686053000 : 8=FIX.4.4|9=263|35=8|34=47|49=MARKET|52=20231010-11:51:45.685|56=MARKET_SESSION|6=0.000000|11=mwQGPUSETlCkmrY11GT5PQ**|14=0.000000|17=44|22=4|37=PREvv3OaRoWe57u0a/k1nQ**|38=3300.000000|39=0|40=2|41=vfwbbS3HSwWMPRWsYOp+OA**|44=49.900000|48=KYG875721634|54=1|55=700|150=5|151=3300|10=034|
20231010-11:51:46.185774000 : 8=FIX.4.4|9=246|35=D|34=37|49=MARKET_SESSION|52=20231010-11:51:46.185|56=MARKET|116=mtp-cimi|11=ax1bpcu6RmSuTpP12X8CbA**|15=HKD|22=4|38=6700|40=2|44=50|48=KYG875721634|54=1|55=700|59=0|60=20231010-11:51:46.182|100=XHKG|583=TVRQLgocDDS1Q0uSUjMqNkCYgQ**|5000=TVOL|10=159|
20231010-11:51:46.186503000 : 8=FIX.4.4|9=239|35=8|34=48|49=MARKET|52=20231010-11:51:46.186|56=MARKET_SESSION|6=0|11=ax1bpcu6RmSuTpP12X8CbA**|14=0|17=45|22=4|30=MARS|31=0|32=0|37=mqc3q24dRhe6my9VgACz3g**|38=6700.000000|39=0|40=2|44=50.000000|48=KYG875721634|54=1|55=700|150=0|151=6700|10=229|
20231010-11:51:46.189474000 : 8=FIX.4.4|9=220|35=F|34=38|49=MARKET_SESSION|52=20231010-11:51:46.189|56=MARKET|11=IUZ72kxQQcS9byHhIEF7Bg**|22=4|38=30000|41=momXo+klQVqkTU0h1L0bIw**|48=KYG875721634|54=1|55=700|60=20231010-11:51:46.187|583=TVRQLgocDDS1Q0uSUjMqNkCYgQ**|10=166|
20231010-11:51:46.189960000 : 8=FIX.4.4|9=261|35=8|34=49|49=MARKET|52=20231010-11:51:46.189|56=MARKET_SESSION|6=0.000000|11=IUZ72kxQQcS9byHhIEF7Bg**|14=0.000000|17=46|22=4|37=nWqfr1xJRQSuopPLxVOoUA**|38=30000.000000|39=4|40=2|41=momXo+klQVqkTU0h1L0bIw**|44=49.800000|48=KYG875721634|54=1|55=700|150=4|151=0|10=140|
20231010-11:52:08.240265000 : 8=FIX.4.4|9=274|35=8|34=50|49=MARKET|52=20231010-11:52:08.240|56=MARKET_SESSION|6=50.000000|11=ax1bpcu6RmSuTpP12X8CbA**|14=6400.000000|17=47|22=4|30=MARS|31=50.000000|32=6400.000000|37=mqc3q24dRhe6my9VgACz3g**|38=6700.000000|39=1|40=2|44=50.000000|48=KYG875721634|54=1|55=700|150=F|151=300|10=136|
20231010-11:52:16.066236000 : 8=FIX.4.4|9=64|35=0|34=39|49=MARKET_SESSION|52=20231010-11:52:16.066|56=MARKET|10=017|
20231010-11:52:38.234569000 : 8=FIX.4.4|9=64|35=0|34=51|49=MARKET|52=20231010-11:52:38.234|56=MARKET_SESSION|10=012|
20231010-11:52:46.193540000 : 8=FIX.4.4|9=64|35=0|34=40|49=MARKET_SESSION|52=20231010-11:52:46.193|56=MARKET|10=013|
20231010-11:52:53.688762000 : 8=FIX.4.4|9=246|35=D|34=41|49=MARKET_SESSION|52=20231010-11:52:53.688|56=MARKET|116=mtp-cimi|11=BXC3qTIPQ9uPNIf0LJIorg**|15=HKD|22=4|38=4300|40=2|44=51|48=KYG875721634|54=2|55=700|59=0|60=20231010-11:52:53.685|100=XHKG|583=TVRQtcFo+LETQpmzSHEyIaze8Q**|5000=TVOL|10=162|
20231010-11:52:53.689416000 : 8=FIX.4.4|9=239|35=8|34=52|49=MARKET|52=20231010-11:52:53.689|56=MARKET_SESSION|6=0|11=BXC3qTIPQ9uPNIf0LJIorg**|14=0|17=48|22=4|30=MARS|31=0|32=0|37=evV7GgBeSAqWd62imjoebw**|38=4300.000000|39=0|40=2|44=51.000000|48=KYG875721634|54=2|55=700|150=0|151=4300|10=237|
20231010-11:52:53.689609000 : 8=FIX.4.4|9=232|35=8|34=53|49=MARKET|52=20231010-11:52:53.689|56=MARKET_SESSION|6=0.000000|11=BXC3qTIPQ9uPNIf0LJIorg**|14=0.000000|17=49|22=4|37=evV7GgBeSAqWd62imjoebw**|38=4300.000000|39=4|40=2|44=51.000000|48=KYG875721634|54=2|55=700|150=4|151=0|10=124|
20231010-11:52:54.694887000 : 8=FIX.4.4|9=246|35=D|34=42|49=MARKET_SESSION|52=20231010-11:52:54.694|56=MARKET|116=mtp-cimi|11=yMn7fGwjTAuthnjEfOlo3Q**|15=HKD|22=4|38=4300|40=2|44=51|48=KYG875721634|54=2|55=700|59=0|60=20231010-11:52:54.692|100=XHKG|583=TVRQtcFo+LETQpmzSHEyIaze8Q**|5000=TVOL|10=159|
20231010-11:52:54.695561000 : 8=FIX.4.4|9=239|35=8|34=54|49=MARKET|52=20231010-11:52:54.695|56=MARKET_SESSION|6=0|11=yMn7fGwjTAuthnjEfOlo3Q**|14=0|17=50|22=4|30=MARS|31=0|32=0|37=NdgkE5PWRuqMhhHaj7041Q**|38=4300.000000|39=0|40=2|44=51.000000|48=KYG875721634|54=2|55=700|150=0|151=4300|10=061|
20231010-11:52:54.695722000 : 8=FIX.4.4|9=232|35=8|34=55|49=MARKET|52=20231010-11:52:54.695|56=MARKET_SESSION|6=0.000000|11=yMn7fGwjTAuthnjEfOlo3Q**|14=0.000000|17=51|22=4|37=NdgkE5PWRuqMhhHaj7041Q**|38=4300.000000|39=4|40=2|44=51.000000|48=KYG875721634|54=2|55=700|150=4|151=0|10=204|
20231010-11:52:55.700517000 : 8=FIX.4.4|9=246|35=D|34=43|49=MARKET_SESSION|52=20231010-11:52:55.700|56=MARKET|116=mtp-cimi|11=v2ZJYI5aT0ioCye23bQweA**|15=HKD|22=4|38=4300|40=2|44=51|48=KYG875721634|54=2|55=700|59=0|60=20231010-11:52:55.698|100=XHKG|583=TVRQtcFo+LETQpmzSHEyIaze8Q**|5000=TVOL|10=194|
20231010-11:52:55.701062000 : 8=FIX.4.4|9=239|35=8|34=56|49=MARKET|52=20231010-11:52:55.700|56=MARKET_SESSION|6=0|11=v2ZJYI5aT0ioCye23bQweA**|14=0|17=52|22=4|30=MARS|31=0|32=0|37=lW1kqF+MQO+vVa9DqvkF7Q**|38=4300.000000|39=0|40=2|44=51.000000|48=KYG875721634|54=2|55=700|150=0|151=4300|10=084|
20231010-11:52:55.701259000 : 8=FIX.4.4|9=232|35=8|34=57|49=MARKET|52=20231010-11:52:55.701|56=MARKET_SESSION|6=0.000000|11=v2ZJYI5aT0ioCye23bQweA**|14=0.000000|17=53|22=4|37=lW1kqF+MQO+vVa9DqvkF7Q**|38=4300.000000|39=4|40=2|44=51.000000|48=KYG875721634|54=2|55=700|150=4|151=0|10=228|
20231010-11:52:56.706170000 : 8=FIX.4.4|9=246|35=D|34=44|49=MARKET_SESSION|52=20231010-11:52:56.706|56=MARKET|116=mtp-cimi|11=FD8SqS/5QpmHBwE+wcqbcg**|15=HKD|22=4|38=4300|40=2|44=51|48=KYG875721634|54=2|55=700|59=0|60=20231010-11:52:56.703|100=XHKG|583=TVRQtcFo+LETQpmzSHEyIaze8Q**|5000=TVOL|10=219|
20231010-11:52:56.706845000 : 8=FIX.4.4|9=239|35=8|34=58|49=MARKET|52=20231010-11:52:56.706|56=MARKET_SESSION|6=0|11=FD8SqS/5QpmHBwE+wcqbcg**|14=0|17=54|22=4|30=MARS|31=0|32=0|37=aaYYFHeaT4uJXI7LzLWD7w**|38=4300.000000|39=0|40=2|44=51.000000|48=KYG875721634|54=2|55=700|150=0|151=4300|10=155|
20231010-11:52:56.707050000 : 8=FIX.4.4|9=232|35=8|34=59|49=MARKET|52=20231010-11:52:56.706|56=MARKET_SESSION|6=0.000000|11=FD8SqS/5QpmHBwE+wcqbcg**|14=0.000000|17=55|22=4|37=aaYYFHeaT4uJXI7LzLWD7w**|38=4300.000000|39=4|40=2|44=51.000000|48=KYG875721634|54=2|55=700|150=4|151=0|10=042|
20231010-11:52:57.712228000 : 8=FIX.4.4|9=246|35=D|34=45|49=MARKET_SESSION|52=20231010-11:52:57.712|56=MARKET|116=mtp-cimi|11=BVOcfY5lTpmiOsQSz1Q6Xg**|15=HKD|22=4|38=4300|40=2|44=51|48=KYG875721634|54=2|55=700|59=0|60=20231010-11:52:57.710|100=XHKG|583=TVRQtcFo+LETQpmzSHEyIaze8Q**|5000=TVOL|10=033|
20231010-11:52:57.712990000 : 8=FIX.4.4|9=239|35=8|34=60|49=MARKET|52=20231010-11:52:57.712|56=MARKET_SESSION|6=0|11=BVOcfY5lTpmiOsQSz1Q6Xg**|14=0|17=56|22=4|30=MARS|31=0|32=0|37=aSZwiDJsTQeKLffavivCZA**|38=4300.000000|39=0|40=2|44=51.000000|48=KYG875721634|54=2|55=700|150=0|151=4300|10=138|
20231010-11:52:57.713172000 : 8=FIX.4.4|9=232|35=8|34=61|49=MARKET|52=20231010-11:52:57.713|56=MARKET_SESSION|6=0.000000|11=BVOcfY5lTpmiOsQSz1Q6Xg**|14=0.000000|17=57|22=4|37=aSZwiDJsTQeKLffavivCZA**|38=4300.000000|39=4|40=2|44=51.000000|48=KYG875721634|54=2|55=700|150=4|151=0|10=026|
20231010-11:52:58.718501000 : 8=FIX.4.4|9=246|35=D|34=46|49=MARKET_SESSION|52=20231010-11:52:58.718|56=MARKET|116=mtp-cimi|11=ItRCB3ylS1OIruTwOQnSwg**|15=HKD|22=4|38=4300|40=2|44=51|48=KYG875721634|54=2|55=700|59=0|60=20231010-11:52:58.716|100=XHKG|583=TVRQtcFo+LETQpmzSHEyIaze8Q**|5000=TVOL|10=078|
20231010-11:52:58.719139000 : 8=FIX.4.4|9=239|35=8|34=62|49=MARKET|52=20231010-11:52:58.719|56=MARKET_SESSION|6=0|11=ItRCB3ylS1OIruTwOQnSwg**|14=0|17=58|22=4|30=MARS|31=0|32=0|37=/Rz9wuhaQgO+dpWcIv4ycQ**|38=4300.000000|39=0|40=2|44=51.000000|48=KYG875721634|54=2|55=700|150=0|151=4300|10=141|
20231010-11:52:58.719345000 : 8=FIX.4.4|9=232|35=8|34=63|49=MARKET|52=20231010-11:52:58.719|56=MARKET_SESSION|6=0.000000|11=ItRCB3ylS1OIruTwOQnSwg**|14=0.000000|17=59|22=4|37=/Rz9wuhaQgO+dpWcIv4ycQ**|38=4300.000000|39=4|40=2|44=51.000000|48=KYG875721634|54=2|55=700|150=4|151=0|10=028|
20231010-11:52:59.724255000 : 8=FIX.4.4|9=246|35=D|34=47|49=MARKET_SESSION|52=20231010-11:52:59.724|56=MARKET|116=mtp-cimi|11=kdmZlkztR9aUN6P0vIK8sQ**|15=HKD|22=4|38=4300|40=2|44=51|48=KYG875721634|54=2|55=700|59=0|60=20231010-11:52:59.722|100=XHKG|583=TVRQtcFo+LETQpmzSHEyIaze8Q**|5000=TVOL|10=056|
20231010-11:52:59.724842000 : 8=FIX.4.4|9=239|35=8|34=64|49=MARKET|52=20231010-11:52:59.724|56=MARKET_SESSION|6=0|11=kdmZlkztR9aUN6P0vIK8sQ**|14=0|17=60|22=4|30=MARS|31=0|32=0|37=h3bspdrpTimFGRdQxuMJRg**|38=4300.000000|39=0|40=2|44=51.000000|48=KYG875721634|54=2|55=700|150=0|151=4300|10=202|
20231010-11:52:59.725133000 : 8=FIX.4.4|9=232|35=8|34=65|49=MARKET|52=20231010-11:52:59.724|56=MARKET_SESSION|6=0.000000|11=kdmZlkztR9aUN6P0vIK8sQ**|14=0.000000|17=61|22=4|37=h3bspdrpTimFGRdQxuMJRg**|38=4300.000000|39=4|40=2|44=51.000000|48=KYG875721634|54=2|55=700|150=4|151=0|10=089|
20231010-11:53:00.730298000 : 8=FIX.4.4|9=246|35=D|34=48|49=MARKET_SESSION|52=20231010-11:53:00.730|56=MARKET|116=mtp-cimi|11=sCRDuibLTl+EwuaFBdOgBA**|15=HKD|22=4|38=4300|40=2|44=51|48=KYG875721634|54=2|55=700|59=0|60=20231010-11:53:00.728|100=XHKG|583=TVRQtcFo+LETQpmzSHEyIaze8Q**|5000=TVOL|10=246|
20231010-11:53:00.730946000 : 8=FIX.4.4|9=239|35=8|34=66|49=MARKET|52=20231010-11:53:00.730|56=MARKET_SESSION|6=0|11=sCRDuibLTl+EwuaFBdOgBA**|14=0|17=62|22=4|30=MARS|31=0|32=0|37=RkcrkdOJRvGXvi/02eJ0wQ**|38=4300.000000|39=0|40=2|44=51.000000|48=KYG875721634|54=2|55=700|150=0|151=4300|10=233|
20231010-11:53:00.731153000 : 8=FIX.4.4|9=232|35=8|34=67|49=MARKET|52=20231010-11:53:00.730|56=MARKET_SESSION|6=0.000000|11=sCRDuibLTl+EwuaFBdOgBA**|14=0.000000|17=63|22=4|37=RkcrkdOJRvGXvi/02eJ0wQ**|38=4300.000000|39=4|40=2|44=51.000000|48=KYG875721634|54=2|55=700|150=4|151=0|10=120|
20231010-11:53:01.736000000 : 8=FIX.4.4|9=246|35=D|34=49|49=MARKET_SESSION|52=20231010-11:53:01.735|56=MARKET|116=mtp-cimi|11=JMnK8iC8RLe2qQv+7I7BVw**|15=HKD|22=4|38=4300|40=2|44=51|48=KYG875721634|54=2|55=700|59=0|60=20231010-11:53:01.733|100=XHKG|583=TVRQtcFo+LETQpmzSHEyIaze8Q**|5000=TVOL|10=074|
20231010-11:53:01.736681000 : 8=FIX.4.4|9=239|35=8|34=68|49=MARKET|52=20231010-11:53:01.736|56=MARKET_SESSION|6=0|11=JMnK8iC8RLe2qQv+7I7BVw**|14=0|17=64|22=4|30=MARS|31=0|32=0|37=jUfVKfumT9a+vFzqsgXY9g**|38=4300.000000|39=0|40=2|44=51.000000|48=KYG875721634|54=2|55=700|150=0|151=4300|10=197|
20231010-11:53:01.736861000 : 8=FIX.4.4|9=232|35=8|34=69|49=MARKET|52=20231010-11:53:01.736|56=MARKET_SESSION|6=0.000000|11=JMnK8iC8RLe2qQv+7I7BVw**|14=0.000000|17=65|22=4|37=jUfVKfumT9a+vFzqsgXY9g**|38=4300.000000|39=4|40=2|44=51.000000|48=KYG875721634|54=2|55=700|150=4|151=0|10=084|
20231010-11:53:31.034272000 : 8=FIX.4.4|9=64|35=0|34=70|49=MARKET|52=20231010-11:53:31.034|56=MARKET_SESSION|10=005|
20231010-11:53:31.034402000 : 8=FIX.4.4|9=64|35=0|34=50|49=MARKET_SESSION|52=20231010-11:53:31.034|56=MARKET|10=003|
20231010-11:53:44.017698000 : 8=FIX.4.4|9=248|35=D|34=51|49=MARKET_SESSION|52=20231010-11:53:44.017|56=MARKET|116=mtp-cimi|11=0SJpo84ASTShyN/PYb3bCA**|15=HKD|22=4|38=4300|40=2|44=51.2|48=KYG875721634|54=2|55=700|59=0|60=20231010-11:53:44.014|100=XHKG|583=TVRQD2kmA0S3TCyUcvUuoIoBKA**|5000=TVOL|10=066|
20231010-11:53:44.018283000 : 8=FIX.4.4|9=239|35=8|34=71|49=MARKET|52=20231010-11:53:44.018|56=MARKET_SESSION|6=0|11=0SJpo84ASTShyN/PYb3bCA**|14=0|17=66|22=4|30=MARS|31=0|32=0|37=GSbHaDvKSnK0d2Vgw7vvdg**|38=4300.000000|39=0|40=2|44=51.200000|48=KYG875721634|54=2|55=700|150=0|151=4300|10=115|
20231010-11:53:58.566602000 : 8=FIX.4.4|9=266|35=G|34=52|49=MARKET_SESSION|52=20231010-11:53:58.566|56=MARKET|116=mtp-cimi|11=ejEj/y6gTVCzsb0BkXvrLg**|15=HKD|22=4|38=2000|40=2|41=0SJpo84ASTShyN/PYb3bCA**|44=51.2|48=KYG875721634|54=2|55=700|59=0|60=20231010-11:53:58.564|100=XHKG|583=TVRQD2kmA0S3TCyUcvUuoIoBKA**|10=220|
20231010-11:53:58.567267000 : 8=FIX.4.4|9=263|35=8|34=72|49=MARKET|52=20231010-11:53:58.567|56=MARKET_SESSION|6=0.000000|11=ejEj/y6gTVCzsb0BkXvrLg**|14=0.000000|17=67|22=4|37=GSbHaDvKSnK0d2Vgw7vvdg**|38=2000.000000|39=0|40=2|41=0SJpo84ASTShyN/PYb3bCA**|44=51.200000|48=KYG875721634|54=2|55=700|150=5|151=2000|10=100|
20231010-11:54:25.320928000 : 8=FIX.4.4|9=266|35=G|34=53|49=MARKET_SESSION|52=20231010-11:54:25.320|56=MARKET|116=mtp-cimi|11=flhTe6HzQw2IHEsw/SgiuA**|15=HKD|22=4|38=1300|40=2|41=ejEj/y6gTVCzsb0BkXvrLg**|44=51.2|48=KYG875721634|54=2|55=700|59=0|60=20231010-11:54:25.318|100=XHKG|583=TVRQD2kmA0S3TCyUcvUuoIoBKA**|10=158|
20231010-11:54:25.321652000 : 8=FIX.4.4|9=263|35=8|34=73|49=MARKET|52=20231010-11:54:25.321|56=MARKET_SESSION|6=0.000000|11=flhTe6HzQw2IHEsw/SgiuA**|14=0.000000|17=68|22=4|37=GSbHaDvKSnK0d2Vgw7vvdg**|38=1300.000000|39=0|40=2|41=ejEj/y6gTVCzsb0BkXvrLg**|44=51.200000|48=KYG875721634|54=2|55=700|150=5|151=1300|10=049|
20231010-11:54:25.821363000 : 8=FIX.4.4|9=245|35=D|34=54|49=MARKET_SESSION|52=20231010-11:54:25.821|56=MARKET|116=mtp-cimi|11=W0c0rQpgSj6Hi62ufQNf3Q**|15=HKD|22=4|38=700|40=2|44=51|48=KYG875721634|54=2|55=700|59=0|60=20231010-11:54:25.818|100=XHKG|583=TVRQD2kmA0S3TCyUcvUuoIoBKA**|5000=TVOL|10=016|
20231010-11:54:25.822253000 : 8=FIX.4.4|9=237|35=8|34=74|49=MARKET|52=20231010-11:54:25.822|56=MARKET_SESSION|6=0|11=W0c0rQpgSj6Hi62ufQNf3Q**|14=0|17=69|22=4|30=MARS|31=0|32=0|37=eGav3lWeSSWEbeL/HYe0zA**|38=700.000000|39=0|40=2|44=51.000000|48=KYG875721634|54=2|55=700|150=0|151=700|10=028|
20231010-11:54:37.668806000 : 8=FIX.4.4|9=271|35=8|34=75|49=MARKET|52=20231010-11:54:37.668|56=MARKET_SESSION|6=51.000000|11=W0c0rQpgSj6Hi62ufQNf3Q**|14=200.000000|17=70|22=4|30=MARS|31=51.000000|32=200.000000|37=eGav3lWeSSWEbeL/HYe0zA**|38=700.000000|39=1|40=2|44=51.000000|48=KYG875721634|54=2|55=700|150=F|151=500|10=155|
20231010-11:54:38.789045000 : 8=FIX.4.4|9=271|35=8|34=76|49=MARKET|52=20231010-11:54:38.788|56=MARKET_SESSION|6=51.000000|11=W0c0rQpgSj6Hi62ufQNf3Q**|14=400.000000|17=71|22=4|30=MARS|31=51.000000|32=200.000000|37=eGav3lWeSSWEbeL/HYe0zA**|38=700.000000|39=1|40=2|44=51.000000|48=KYG875721634|54=2|55=700|150=F|151=300|10=161|
20231010-11:54:55.899469000 : 8=FIX.4.4|9=64|35=0|34=55|49=MARKET_SESSION|52=20231010-11:54:55.899|56=MARKET|10=034|
20231010-11:54:56.548703000 : 8=FIX.4.4|9=247|35=D|34=56|49=MARKET_SESSION|52=20231010-11:54:56.548|56=MARKET|116=mtp-cimi|11=+coCPmndRqe3S5nHlPi1YQ**|15=HKD|22=4|38=300|40=2|44=51.2|48=KYG875721634|54=2|55=700|59=0|60=20231010-11:54:56.545|100=XHKG|583=TVRQD2kmA0S3TCyUcvUuoIoBKA**|5000=TVOL|10=191|
20231010-11:54:56.549415000 : 8=FIX.4.4|9=237|35=8|34=77|49=MARKET|52=20231010-11:54:56.549|56=MARKET_SESSION|6=0|11=+coCPmndRqe3S5nHlPi1YQ**|14=0|17=72|22=4|30=MARS|31=0|32=0|37=ywGfHNoUTvKA7BWoNYQZNA**|38=300.000000|39=0|40=2|44=51.200000|48=KYG875721634|54=2|55=700|150=0|151=300|10=123|
20231010-11:55:19.747227000 : 8=FIX.4.4|9=271|35=8|34=78|49=MARKET|52=20231010-11:55:19.747|56=MARKET_SESSION|6=50.000000|11=ax1bpcu6RmSuTpP12X8CbA**|14=6700.000000|17=73|22=4|30=MARS|31=50.000000|32=300.000000|37=mqc3q24dRhe6my9VgACz3g**|38=6700.000000|39=2|40=2|44=50.000000|48=KYG875721634|54=1|55=700|150=F|151=0|10=009|
20231010-11:55:19.751923000 : 8=FIX.4.4|9=249|35=D|34=57|49=MARKET_SESSION|52=20231010-11:55:19.751|56=MARKET|116=mtp-cimi|11=7Lkj8OQ6QjO0DmMz2rKGRw**|15=HKD|22=4|38=30000|40=2|44=49.8|48=KYG875721634|54=1|55=700|59=0|60=20231010-11:55:19.748|100=XHKG|583=TVRQLgocDDS1Q0uSUjMqNkCYgQ**|5000=TVOL|10=000|
20231010-11:55:19.752694000 : 8=FIX.4.4|9=241|35=8|34=79|49=MARKET|52=20231010-11:55:19.752|56=MARKET_SESSION|6=0|11=7Lkj8OQ6QjO0DmMz2rKGRw**|14=0|17=74|22=4|30=MARS|31=0|32=0|37=+y6XUE3rQcarDu0G6gqiZw**|38=30000.000000|39=0|40=2|44=49.800000|48=KYG875721634|54=1|55=700|150=0|151=30000|10=244|
20231010-11:55:21.003676000 : 8=FIX.4.4|9=266|35=G|34=58|49=MARKET_SESSION|52=20231010-11:55:21.003|56=MARKET|116=mtp-cimi|11=wNzsM8z5SImKX6Q7wY8AlA**|15=HKD|22=4|38=2200|40=2|41=mwQGPUSETlCkmrY11GT5PQ**|44=49.9|48=KYG875721634|54=1|55=700|59=0|60=20231010-11:55:21.001|100=XHKG|583=TVRQLgocDDS1Q0uSUjMqNkCYgQ**|10=187|
20231010-11:55:21.004318000 : 8=FIX.4.4|9=263|35=8|34=80|49=MARKET|52=20231010-11:55:21.004|56=MARKET_SESSION|6=0.000000|11=wNzsM8z5SImKX6Q7wY8AlA**|14=0.000000|17=75|22=4|37=PREvv3OaRoWe57u0a/k1nQ**|38=2200.000000|39=0|40=2|41=mwQGPUSETlCkmrY11GT5PQ**|44=49.900000|48=KYG875721634|54=1|55=700|150=5|151=2200|10=194|
20231010-11:55:21.007633000 : 8=FIX.4.4|9=246|35=D|34=59|49=MARKET_SESSION|52=20231010-11:55:21.007|56=MARKET|116=mtp-cimi|11=AhEmohb2QG6wansQoR1hcA**|15=HKD|22=4|38=1100|40=2|44=50|48=KYG875721634|54=1|55=700|59=0|60=20231010-11:55:21.006|100=XHKG|583=TVRQLgocDDS1Q0uSUjMqNkCYgQ**|5000=TVOL|10=196|
20231010-11:55:21.007970000 : 8=FIX.4.4|9=239|35=8|34=81|49=MARKET|52=20231010-11:55:21.007|56=MARKET_SESSION|6=0|11=AhEmohb2QG6wansQoR1hcA**|14=0|17=76|22=4|30=MARS|31=0|32=0|37=GVf0h9+KSpyv3RwxSUgNNA**|38=1100.000000|39=0|40=2|44=50.000000|48=KYG875721634|54=1|55=700|150=0|151=1100|10=231|
20231010-11:55:21.009961000 : 8=FIX.4.4|9=220|35=F|34=60|49=MARKET_SESSION|52=20231010-11:55:21.009|56=MARKET|11=3Vd2ezVjTa2l94kdYSg13g**|22=4|38=30000|41=7Lkj8OQ6QjO0DmMz2rKGRw**|48=KYG875721634|54=1|55=700|60=20231010-11:55:21.009|583=TVRQLgocDDS1Q0uSUjMqNkCYgQ**|10=020|
20231010-11:55:21.010291000 : 8=FIX.4.4|9=261|35=8|34=82|49=MARKET|52=20231010-11:55:21.010|56=MARKET_SESSION|6=0.000000|11=3Vd2ezVjTa2l94kdYSg13g**|14=0.000000|17=77|22=4|37=+y6XUE3rQcarDu0G6gqiZw**|38=30000.000000|39=4|40=2|41=7Lkj8OQ6QjO0DmMz2rKGRw**|44=49.800000|48=KYG875721634|54=1|55=700|150=4|151=0|10=105|
20231010-11:55:26.371431000 : 8=FIX.4.4|9=219|35=F|34=61|49=MARKET_SESSION|52=20231010-11:55:26.371|56=MARKET|11=Bc+01bmrTnulo43rbZTQig**|22=4|38=1300|41=flhTe6HzQw2IHEsw/SgiuA**|48=KYG875721634|54=2|55=700|60=20231010-11:55:26.369|583=TVRQD2kmA0S3TCyUcvUuoIoBKA**|10=219|
20231010-11:55:26.372079000 : 8=FIX.4.4|9=219|35=F|34=62|49=MARKET_SESSION|52=20231010-11:55:26.372|56=MARKET|11=R/Jd5earRFmuoPlzP6tWNw**|22=4|38=2200|41=wNzsM8z5SImKX6Q7wY8AlA**|48=KYG875721634|54=1|55=700|60=20231010-11:55:26.369|583=TVRQLgocDDS1Q0uSUjMqNkCYgQ**|10=218|
20231010-11:55:26.372164000 : 8=FIX.4.4|9=260|35=8|34=83|49=MARKET|52=20231010-11:55:26.372|56=MARKET_SESSION|6=0.000000|11=Bc+01bmrTnulo43rbZTQig**|14=0.000000|17=78|22=4|37=GSbHaDvKSnK0d2Vgw7vvdg**|38=1300.000000|39=4|40=2|41=flhTe6HzQw2IHEsw/SgiuA**|44=51.200000|48=KYG875721634|54=2|55=700|150=4|151=0|10=102|
20231010-11:55:26.372887000 : 8=FIX.4.4|9=260|35=8|34=84|49=MARKET|52=20231010-11:55:26.372|56=MARKET_SESSION|6=0.000000|11=R/Jd5earRFmuoPlzP6tWNw**|14=0.000000|17=79|22=4|37=PREvv3OaRoWe57u0a/k1nQ**|38=2200.000000|39=4|40=2|41=wNzsM8z5SImKX6Q7wY8AlA**|44=49.900000|48=KYG875721634|54=1|55=700|150=4|151=0|10=226|
20231010-11:55:26.373585000 : 8=FIX.4.4|9=218|35=F|34=63|49=MARKET_SESSION|52=20231010-11:55:26.373|56=MARKET|11=ay8AUz0JR4ua2MsBCoHHJQ**|22=4|38=300|41=+coCPmndRqe3S5nHlPi1YQ**|48=KYG875721634|54=2|55=700|60=20231010-11:55:26.369|583=TVRQD2kmA0S3TCyUcvUuoIoBKA**|10=227|
20231010-11:55:26.374161000 : 8=FIX.4.4|9=259|35=8|34=85|49=MARKET|52=20231010-11:55:26.374|56=MARKET_SESSION|6=0.000000|11=ay8AUz0JR4ua2MsBCoHHJQ**|14=0.000000|17=80|22=4|37=ywGfHNoUTvKA7BWoNYQZNA**|38=300.000000|39=4|40=2|41=+coCPmndRqe3S5nHlPi1YQ**|44=51.200000|48=KYG875721634|54=2|55=700|150=4|151=0|10=063|
20231010-11:55:26.374702000 : 8=FIX.4.4|9=219|35=F|34=64|49=MARKET_SESSION|52=20231010-11:55:26.374|56=MARKET|11=dN45jNG2QZilUZZzALWJDw**|22=4|38=1100|41=AhEmohb2QG6wansQoR1hcA**|48=KYG875721634|54=1|55=700|60=20231010-11:55:26.369|583=TVRQLgocDDS1Q0uSUjMqNkCYgQ**|10=153|
20231010-11:55:26.374851000 : 8=FIX.4.4|9=218|35=F|34=65|49=MARKET_SESSION|52=20231010-11:55:26.374|56=MARKET|11=Se1u45nCTlSKhpdNxOsTCg**|22=4|38=700|41=W0c0rQpgSj6Hi62ufQNf3Q**|48=KYG875721634|54=2|55=700|60=20231010-11:55:26.369|583=TVRQD2kmA0S3TCyUcvUuoIoBKA**|10=053|
20231010-11:55:26.375439000 : 8=FIX.4.4|9=260|35=8|34=86|49=MARKET|52=20231010-11:55:26.375|56=MARKET_SESSION|6=0.000000|11=dN45jNG2QZilUZZzALWJDw**|14=0.000000|17=81|22=4|37=GVf0h9+KSpyv3RwxSUgNNA**|38=1100.000000|39=4|40=2|41=AhEmohb2QG6wansQoR1hcA**|44=50.000000|48=KYG875721634|54=1|55=700|150=4|151=0|10=183|
20231010-11:55:26.375975000 : 8=FIX.4.4|9=262|35=8|34=87|49=MARKET|52=20231010-11:55:26.375|56=MARKET_SESSION|6=51.000000|11=Se1u45nCTlSKhpdNxOsTCg**|14=400.000000|17=82|22=4|37=eGav3lWeSSWEbeL/HYe0zA**|38=700.000000|39=4|40=2|41=W0c0rQpgSj6Hi62ufQNf3Q**|44=51.000000|48=KYG875721634|54=2|55=700|150=4|151=0|10=011|
20231010-11:55:56.037647000 : 8=FIX.4.4|9=64|35=0|34=66|49=MARKET_SESSION|52=20231010-11:55:56.037|56=MARKET|10=022|
20231010-11:55:56.037961000 : 8=FIX.4.4|9=64|35=0|34=88|49=MARKET|52=20231010-11:55:56.037|56=MARKET_SESSION|10=026|
20231010-11:56:26.029499000 : 8=FIX.4.4|9=64|35=0|34=67|49=MARKET_SESSION|52=20231010-11:56:26.029|56=MARKET|10=022|
20231010-11:56:26.029761000 : 8=FIX.4.4|9=64|35=0|34=89|49=MARKET|52=20231010-11:56:26.029|56=MARKET_SESSION|10=026|
20231010-11:56:56.050661000 : 8=FIX.4.4|9=64|35=0|34=68|49=MARKET_SESSION|52=20231010-11:56:56.050|56=MARKET|10=020|
20231010-11:56:56.050755000 : 8=FIX.4.4|9=64|35=0|34=90|49=MARKET|52=20231010-11:56:56.050|56=MARKET_SESSION|10=015|
20231010-11:57:26.019757000 : 8=FIX.4.4|9=64|35=0|34=91|49=MARKET|52=20231010-11:57:26.019|56=MARKET_SESSION|10=019|
20231010-11:57:26.019876000 : 8=FIX.4.4|9=64|35=0|34=69|49=MARKET_SESSION|52=20231010-11:57:26.019|56=MARKET|10=024|
20231010-11:57:56.052724000 : 8=FIX.4.4|9=64|35=0|34=70|49=MARKET_SESSION|52=20231010-11:57:56.052|56=MARKET|10=016|
20231010-11:57:56.052987000 : 8=FIX.4.4|9=64|35=0|34=92|49=MARKET|52=20231010-11:57:56.052|56=MARKET_SESSION|10=020|
20231010-11:58:26.003808000 : 8=FIX.4.4|9=64|35=0|34=71|49=MARKET_SESSION|52=20231010-11:58:26.003|56=MARKET|10=011|
20231010-11:58:26.004076000 : 8=FIX.4.4|9=64|35=0|34=93|49=MARKET|52=20231010-11:58:26.003|56=MARKET_SESSION|10=015|
20231010-11:58:56.411075000 : 8=FIX.4.4|9=64|35=0|34=94|49=MARKET|52=20231010-11:58:56.410|56=MARKET_SESSION|10=021|
20231010-11:58:56.411189000 : 8=FIX.4.4|9=64|35=0|34=72|49=MARKET_SESSION|52=20231010-11:58:56.411|56=MARKET|10=018|
20231010-11:59:26.041742000 : 8=FIX.4.4|9=64|35=0|34=95|49=MARKET|52=20231010-11:59:26.041|56=MARKET_SESSION|10=020|
20231010-11:59:26.041872000 : 8=FIX.4.4|9=64|35=0|34=73|49=MARKET_SESSION|52=20231010-11:59:26.041|56=MARKET|10=016|
20231010-11:59:56.290446000 : 8=FIX.4.4|9=64|35=0|34=74|49=MARKET_SESSION|52=20231010-11:59:56.290|56=MARKET|10=026|
20231010-11:59:56.290711000 : 8=FIX.4.4|9=64|35=0|34=96|49=MARKET|52=20231010-11:59:56.290|56=MARKET_SESSION|10=030|
20231010-12:00:26.132490000 : 8=FIX.4.4|9=64|35=0|34=75|49=MARKET_SESSION|52=20231010-12:00:26.132|56=MARKET|10=006|
20231010-12:00:26.132718000 : 8=FIX.4.4|9=64|35=0|34=97|49=MARKET|52=20231010-12:00:26.132|56=MARKET_SESSION|10=010|
20231010-12:00:56.244304000 : 8=FIX.4.4|9=64|35=0|34=98|49=MARKET|52=20231010-12:00:56.244|56=MARKET_SESSION|10=018|
20231010-12:00:56.244416000 : 8=FIX.4.4|9=64|35=0|34=76|49=MARKET_SESSION|52=20231010-12:00:56.244|56=MARKET|10=014|
20231010-12:01:26.096239000 : 8=FIX.4.4|9=64|35=0|34=99|49=MARKET|52=20231010-12:01:26.096|56=MARKET_SESSION|10=022|
20231010-12:01:26.096364000 : 8=FIX.4.4|9=64|35=0|34=77|49=MARKET_SESSION|52=20231010-12:01:26.096|56=MARKET|10=018|
20231010-12:01:56.044582000 : 8=FIX.4.4|9=65|35=0|34=100|49=MARKET|52=20231010-12:01:56.044|56=MARKET_SESSION|10=050|
20231010-12:01:56.044710000 : 8=FIX.4.4|9=64|35=0|34=78|49=MARKET_SESSION|52=20231010-12:01:56.044|56=MARKET|10=015|
20231010-12:02:26.196524000 : 8=FIX.4.4|9=64|35=0|34=79|49=MARKET_SESSION|52=20231010-12:02:26.196|56=MARKET|10=022|
20231010-12:02:26.196788000 : 8=FIX.4.4|9=65|35=0|34=101|49=MARKET|52=20231010-12:02:26.196|56=MARKET_SESSION|10=057|
20231010-12:02:56.039158000 : 8=FIX.4.4|9=64|35=0|34=80|49=MARKET_SESSION|52=20231010-12:02:56.039|56=MARKET|10=013|
20231010-12:02:56.039431000 : 8=FIX.4.4|9=65|35=0|34=102|49=MARKET|52=20231010-12:02:56.039|56=MARKET_SESSION|10=057|
20231010-12:03:26.169130000 : 8=FIX.4.4|9=65|35=0|34=103|49=MARKET|52=20231010-12:03:26.168|56=MARKET_SESSION|10=059|
20231010-12:03:26.169256000 : 8=FIX.4.4|9=64|35=0|34=81|49=MARKET_SESSION|52=20231010-12:03:26.169|56=MARKET|10=016|
20231010-12:03:56.018422000 : 8=FIX.4.4|9=65|35=0|34=104|49=MARKET|52=20231010-12:03:56.018|56=MARKET_SESSION|10=057|
20231010-12:03:56.018580000 : 8=FIX.4.4|9=64|35=0|34=82|49=MARKET_SESSION|52=20231010-12:03:56.018|56=MARKET|10=013|
20231010-12:04:26.336131000 : 8=FIX.4.4|9=65|35=0|34=105|49=MARKET|52=20231010-12:04:26.335|56=MARKET_SESSION|10=058|
20231010-12:04:26.336258000 : 8=FIX.4.4|9=64|35=0|34=83|49=MARKET_SESSION|52=20231010-12:04:26.336|56=MARKET|10=015|
20231010-12:04:56.076099000 : 8=FIX.4.4|9=65|35=0|34=106|49=MARKET|52=20231010-12:04:56.075|56=MARKET_SESSION|10=063|
20231010-12:04:56.076225000 : 8=FIX.4.4|9=64|35=0|34=84|49=MARKET_SESSION|52=20231010-12:04:56.076|56=MARKET|10=020|
20231010-12:05:26.254753000 : 8=FIX.4.4|9=65|35=0|34=107|49=MARKET|52=20231010-12:05:26.254|56=MARKET_SESSION|10=061|
20231010-12:05:26.254888000 : 8=FIX.4.4|9=64|35=0|34=85|49=MARKET_SESSION|52=20231010-12:05:26.254|56=MARKET|10=017|
20231010-12:05:56.090725000 : 8=FIX.4.4|9=65|35=0|34=108|49=MARKET|52=20231010-12:05:56.090|56=MARKET_SESSION|10=063|
20231010-12:05:56.090855000 : 8=FIX.4.4|9=64|35=0|34=86|49=MARKET_SESSION|52=20231010-12:05:56.090|56=MARKET|10=019|
20231010-12:06:26.028891000 : 8=FIX.4.4|9=65|35=0|34=109|49=MARKET|52=20231010-12:06:26.028|56=MARKET_SESSION|10=063|
20231010-12:06:26.029086000 : 8=FIX.4.4|9=64|35=0|34=87|49=MARKET_SESSION|52=20231010-12:06:26.029|56=MARKET|10=020|
20231010-12:06:56.269744000 : 8=FIX.4.4|9=64|35=0|34=88|49=MARKET_SESSION|52=20231010-12:06:56.269|56=MARKET|10=030|
20231010-12:06:56.270012000 : 8=FIX.4.4|9=65|35=0|34=110|49=MARKET|52=20231010-12:06:56.269|56=MARKET_SESSION|10=065|
20231010-12:07:26.018787000 : 8=FIX.4.4|9=65|35=0|34=111|49=MARKET|52=20231010-12:07:26.018|56=MARKET_SESSION|10=056|
20231010-12:07:26.018989000 : 8=FIX.4.4|9=64|35=0|34=89|49=MARKET_SESSION|52=20231010-12:07:26.018|56=MARKET|10=021|
20231010-12:07:56.184702000 : 8=FIX.4.4|9=65|35=0|34=112|49=MARKET|52=20231010-12:07:56.184|56=MARKET_SESSION|10=064|
20231010-12:07:56.184774000 : 8=FIX.4.4|9=64|35=0|34=90|49=MARKET_SESSION|52=20231010-12:07:56.184|56=MARKET|10=020|
20231010-12:08:26.102906000 : 8=FIX.4.4|9=65|35=0|34=113|49=MARKET|52=20231010-12:08:26.102|56=MARKET_SESSION|10=053|
20231010-12:08:26.103050000 : 8=FIX.4.4|9=64|35=0|34=91|49=MARKET_SESSION|52=20231010-12:08:26.103|56=MARKET|10=010|
20231010-12:08:56.209393000 : 8=FIX.4.4|9=64|35=0|34=92|49=MARKET_SESSION|52=20231010-12:08:56.209|56=MARKET|10=021|
20231010-12:08:56.209544000 : 8=FIX.4.4|9=65|35=0|34=114|49=MARKET|52=20231010-12:08:56.209|56=MARKET_SESSION|10=065|
20231010-12:09:26.011860000 : 8=FIX.4.4|9=65|35=0|34=115|49=MARKET|52=20231010-12:09:26.011|56=MARKET_SESSION|10=055|
20231010-12:09:26.011985000 : 8=FIX.4.4|9=64|35=0|34=93|49=MARKET_SESSION|52=20231010-12:09:26.011|56=MARKET|10=011|
20231010-12:09:56.027203000 : 8=FIX.4.4|9=65|35=0|34=116|49=MARKET|52=20231010-12:09:56.027|56=MARKET_SESSION|10=066|
20231010-12:09:56.027326000 : 8=FIX.4.4|9=64|35=0|34=94|49=MARKET_SESSION|52=20231010-12:09:56.027|56=MARKET|10=022|
20231010-12:10:26.217886000 : 8=FIX.4.4|9=64|35=0|34=95|49=MARKET_SESSION|52=20231010-12:10:26.217|56=MARKET|10=013|
20231010-12:10:26.218187000 : 8=FIX.4.4|9=65|35=0|34=117|49=MARKET|52=20231010-12:10:26.218|56=MARKET_SESSION|10=058|
20231010-12:10:56.069056000 : 8=FIX.4.4|9=65|35=0|34=118|49=MARKET|52=20231010-12:10:56.068|56=MARKET_SESSION|10=065|
20231010-12:10:56.069168000 : 8=FIX.4.4|9=64|35=0|34=96|49=MARKET_SESSION|52=20231010-12:10:56.069|56=MARKET|10=022|
20231010-12:11:26.051417000 : 8=FIX.4.4|9=65|35=0|34=119|49=MARKET|52=20231010-12:11:26.051|56=MARKET_SESSION|10=056|
20231010-12:11:26.051542000 : 8=FIX.4.4|9=64|35=0|34=97|49=MARKET_SESSION|52=20231010-12:11:26.051|56=MARKET|10=012|
20231010-12:11:56.031466000 : 8=FIX.4.4|9=65|35=0|34=120|49=MARKET|52=20231010-12:11:56.031|56=MARKET_SESSION|10=049|
20231010-12:11:56.031590000 : 8=FIX.4.4|9=64|35=0|34=98|49=MARKET_SESSION|52=20231010-12:11:56.031|56=MARKET|10=014|
20231010-12:12:26.276662000 : 8=FIX.4.4|9=64|35=0|34=99|49=MARKET_SESSION|52=20231010-12:12:26.276|56=MARKET|10=024|
20231010-12:12:26.276904000 : 8=FIX.4.4|9=65|35=0|34=121|49=MARKET|52=20231010-12:12:26.276|56=MARKET_SESSION|10=059|
20231010-12:12:56.003720000 : 8=FIX.4.4|9=65|35=0|34=122|49=MARKET|52=20231010-12:12:56.003|56=MARKET_SESSION|10=051|
20231010-12:12:56.003844000 : 8=FIX.4.4|9=65|35=0|34=100|49=MARKET_SESSION|52=20231010-12:12:56.003|56=MARKET|10=047|
20231010-12:13:26.042174000 : 8=FIX.4.4|9=65|35=0|34=123|49=MARKET|52=20231010-12:13:26.042|56=MARKET_SESSION|10=053|
20231010-12:13:26.042299000 : 8=FIX.4.4|9=65|35=0|34=101|49=MARKET_SESSION|52=20231010-12:13:26.042|56=MARKET|10=049|
20231010-12:13:56.022072000 : 8=FIX.4.4|9=65|35=0|34=102|49=MARKET_SESSION|52=20231010-12:13:56.022|56=MARKET|10=051|
20231010-12:13:56.022299000 : 8=FIX.4.4|9=65|35=0|34=124|49=MARKET|52=20231010-12:13:56.022|56=MARKET_SESSION|10=055|
20231010-12:14:26.021448000 : 8=FIX.4.4|9=65|35=0|34=103|49=MARKET_SESSION|52=20231010-12:14:26.021|56=MARKET|10=049|
20231010-12:14:26.021723000 : 8=FIX.4.4|9=65|35=0|34=125|49=MARKET|52=20231010-12:14:26.021|56=MARKET_SESSION|10=053|
20231010-12:14:56.039003000 : 8=FIX.4.4|9=65|35=0|34=104|49=MARKET_SESSION|52=20231010-12:14:56.038|56=MARKET|10=061|
20231010-12:14:56.039259000 : 8=FIX.4.4|9=65|35=0|34=126|49=MARKET|52=20231010-12:14:56.039|56=MARKET_SESSION|10=066|
20231010-12:15:26.136050000 : 8=FIX.4.4|9=65|35=0|34=105|49=MARKET_SESSION|52=20231010-12:15:26.135|56=MARKET|10=058|
20231010-12:15:26.136324000 : 8=FIX.4.4|9=65|35=0|34=127|49=MARKET|52=20231010-12:15:26.136|56=MARKET_SESSION|10=063|
20231010-12:15:56.047238000 : 8=FIX.4.4|9=65|35=0|34=128|49=MARKET|52=20231010-12:15:56.047|56=MARKET_SESSION|10=068|
20231010-12:15:56.047362000 : 8=FIX.4.4|9=65|35=0|34=106|49=MARKET_SESSION|52=20231010-12:15:56.047|56=MARKET|10=064|
20231010-12:16:26.155347000 : 8=FIX.4.4|9=65|35=0|34=107|49=MARKET_SESSION|52=20231010-12:16:26.155|56=MARKET|10=063|
20231010-12:16:26.155622000 : 8=FIX.4.4|9=65|35=0|34=129|49=MARKET|52=20231010-12:16:26.155|56=MARKET_SESSION|10=067|
20231010-12:16:56.043159000 : 8=FIX.4.4|9=65|35=0|34=108|49=MARKET_SESSION|52=20231010-12:16:56.043|56=MARKET|10=063|
20231010-12:16:56.043408000 : 8=FIX.4.4|9=65|35=0|34=130|49=MARKET|52=20231010-12:16:56.043|56=MARKET_SESSION|10=058|
20231010-12:17:26.006673000 : 8=FIX.4.4|9=65|35=0|34=109|49=MARKET_SESSION|52=20231010-12:17:26.006|56=MARKET|10=061|
20231010-12:17:26.006953000 : 8=FIX.4.4|9=65|35=0|34=131|49=MARKET|52=20231010-12:17:26.006|56=MARKET_SESSION|10=056|
20231010-12:17:56.011282000 : 8=FIX.4.4|9=65|35=0|34=132|49=MARKET|52=20231010-12:17:56.011|56=MARKET_SESSION|10=056|
20231010-12:17:56.011414000 : 8=FIX.4.4|9=65|35=0|34=110|49=MARKET_SESSION|52=20231010-12:17:56.011|56=MARKET|10=052|
20231010-12:18:26.112077000 : 8=FIX.4.4|9=65|35=0|34=111|49=MARKET_SESSION|52=20231010-12:18:26.112|56=MARKET|10=053|
20231010-12:18:26.112321000 : 8=FIX.4.4|9=65|35=0|34=133|49=MARKET|52=20231010-12:18:26.112|56=MARKET_SESSION|10=057|
20231010-12:18:56.059223000 : 8=FIX.4.4|9=65|35=0|34=134|49=MARKET|52=20231010-12:18:56.059|56=MARKET_SESSION|10=071|
20231010-12:18:56.059348000 : 8=FIX.4.4|9=65|35=0|34=112|49=MARKET_SESSION|52=20231010-12:18:56.059|56=MARKET|10=067|
20231010-12:19:26.126920000 : 8=FIX.4.4|9=65|35=0|34=135|49=MARKET|52=20231010-12:19:26.126|56=MARKET_SESSION|10=065|
20231010-12:19:26.127062000 : 8=FIX.4.4|9=65|35=0|34=113|49=MARKET_SESSION|52=20231010-12:19:26.127|56=MARKET|10=062|
20231010-12:19:56.167273000 : 8=FIX.4.4|9=65|35=0|34=114|49=MARKET_SESSION|52=20231010-12:19:56.167|56=MARKET|10=070|
20231010-12:19:56.167421000 : 8=FIX.4.4|9=65|35=0|34=136|49=MARKET|52=20231010-12:19:56.167|56=MARKET_SESSION|10=074|
